{
  "contractName": "Ecommerce",
  "abi": [
    {
      "inputs": [],
      "payable": false,
      "stateMutability": "nonpayable",
      "type": "constructor"
    },
    {
      "anonymous": false,
      "inputs": [
        {
          "indexed": false,
          "internalType": "uint256",
          "name": "last_index",
          "type": "uint256"
        },
        {
          "indexed": false,
          "internalType": "uint256",
          "name": "product_id",
          "type": "uint256"
        },
        {
          "indexed": false,
          "internalType": "string",
          "name": "phone_number",
          "type": "string"
        },
        {
          "indexed": false,
          "internalType": "address",
          "name": "author",
          "type": "address"
        }
      ],
      "name": "cartitemadded",
      "type": "event"
    },
    {
      "anonymous": false,
      "inputs": [
        {
          "indexed": false,
          "internalType": "string",
          "name": "phone_number",
          "type": "string"
        },
        {
          "indexed": false,
          "internalType": "string",
          "name": "name",
          "type": "string"
        },
        {
          "indexed": false,
          "internalType": "uint256",
          "name": "age",
          "type": "uint256"
        },
        {
          "indexed": false,
          "internalType": "address",
          "name": "author",
          "type": "address"
        }
      ],
      "name": "familymemberdeleted",
      "type": "event"
    },
    {
      "anonymous": false,
      "inputs": [
        {
          "indexed": false,
          "internalType": "string",
          "name": "phone_number",
          "type": "string"
        },
        {
          "indexed": false,
          "internalType": "string",
          "name": "name",
          "type": "string"
        },
        {
          "indexed": false,
          "internalType": "uint256",
          "name": "age",
          "type": "uint256"
        },
        {
          "indexed": false,
          "internalType": "string",
          "name": "gender",
          "type": "string"
        },
        {
          "indexed": false,
          "internalType": "address",
          "name": "author",
          "type": "address"
        }
      ],
      "name": "familymemberedited",
      "type": "event"
    },
    {
      "anonymous": false,
      "inputs": [
        {
          "indexed": false,
          "internalType": "string",
          "name": "name",
          "type": "string"
        },
        {
          "indexed": false,
          "internalType": "uint256",
          "name": "age",
          "type": "uint256"
        },
        {
          "indexed": false,
          "internalType": "string",
          "name": "gender",
          "type": "string"
        },
        {
          "indexed": false,
          "internalType": "address",
          "name": "author",
          "type": "address"
        }
      ],
      "name": "member_added",
      "type": "event"
    },
    {
      "anonymous": false,
      "inputs": [
        {
          "indexed": false,
          "internalType": "uint256",
          "name": "id",
          "type": "uint256"
        },
        {
          "indexed": false,
          "internalType": "string",
          "name": "username",
          "type": "string"
        },
        {
          "indexed": false,
          "internalType": "string",
          "name": "userphone",
          "type": "string"
        },
        {
          "indexed": false,
          "internalType": "string",
          "name": "product_title",
          "type": "string"
        },
        {
          "indexed": false,
          "internalType": "string",
          "name": "product_quantity",
          "type": "string"
        },
        {
          "indexed": false,
          "internalType": "string",
          "name": "date",
          "type": "string"
        },
        {
          "indexed": false,
          "internalType": "uint256",
          "name": "price",
          "type": "uint256"
        },
        {
          "indexed": false,
          "internalType": "address",
          "name": "author",
          "type": "address"
        }
      ],
      "name": "ordercreated",
      "type": "event"
    },
    {
      "anonymous": false,
      "inputs": [
        {
          "indexed": false,
          "internalType": "uint256",
          "name": "id",
          "type": "uint256"
        },
        {
          "indexed": false,
          "internalType": "address",
          "name": "author",
          "type": "address"
        }
      ],
      "name": "orderdeleted",
      "type": "event"
    },
    {
      "anonymous": false,
      "inputs": [
        {
          "indexed": false,
          "internalType": "uint256",
          "name": "id",
          "type": "uint256"
        },
        {
          "indexed": false,
          "internalType": "string",
          "name": "title",
          "type": "string"
        },
        {
          "indexed": false,
          "internalType": "uint256",
          "name": "price",
          "type": "uint256"
        },
        {
          "indexed": false,
          "internalType": "string",
          "name": "desc",
          "type": "string"
        },
        {
          "indexed": false,
          "internalType": "string",
          "name": "image",
          "type": "string"
        },
        {
          "indexed": false,
          "internalType": "string",
          "name": "quantity",
          "type": "string"
        },
        {
          "indexed": false,
          "internalType": "address",
          "name": "author",
          "type": "address"
        }
      ],
      "name": "productcreated",
      "type": "event"
    },
    {
      "anonymous": false,
      "inputs": [
        {
          "indexed": false,
          "internalType": "uint256",
          "name": "id",
          "type": "uint256"
        },
        {
          "indexed": false,
          "internalType": "address",
          "name": "author",
          "type": "address"
        }
      ],
      "name": "productdeleted",
      "type": "event"
    },
    {
      "anonymous": false,
      "inputs": [
        {
          "indexed": false,
          "internalType": "uint256",
          "name": "id",
          "type": "uint256"
        },
        {
          "indexed": false,
          "internalType": "string",
          "name": "title",
          "type": "string"
        },
        {
          "indexed": false,
          "internalType": "uint256",
          "name": "price",
          "type": "uint256"
        },
        {
          "indexed": false,
          "internalType": "string",
          "name": "desc",
          "type": "string"
        },
        {
          "indexed": false,
          "internalType": "string",
          "name": "image",
          "type": "string"
        },
        {
          "indexed": false,
          "internalType": "string",
          "name": "quantity",
          "type": "string"
        },
        {
          "indexed": false,
          "internalType": "address",
          "name": "author",
          "type": "address"
        }
      ],
      "name": "productedited",
      "type": "event"
    },
    {
      "anonymous": false,
      "inputs": [
        {
          "indexed": false,
          "internalType": "uint256",
          "name": "product_id",
          "type": "uint256"
        },
        {
          "indexed": false,
          "internalType": "string",
          "name": "phone_number",
          "type": "string"
        },
        {
          "indexed": false,
          "internalType": "address",
          "name": "author",
          "type": "address"
        }
      ],
      "name": "removedfromcart",
      "type": "event"
    },
    {
      "anonymous": false,
      "inputs": [
        {
          "indexed": false,
          "internalType": "string",
          "name": "name",
          "type": "string"
        },
        {
          "indexed": false,
          "internalType": "string",
          "name": "phone_number",
          "type": "string"
        },
        {
          "indexed": false,
          "internalType": "string",
          "name": "address_",
          "type": "string"
        },
        {
          "indexed": false,
          "internalType": "string",
          "name": "gender",
          "type": "string"
        },
        {
          "indexed": false,
          "internalType": "uint256",
          "name": "age",
          "type": "uint256"
        },
        {
          "indexed": false,
          "internalType": "uint256",
          "name": "counter",
          "type": "uint256"
        },
        {
          "indexed": false,
          "internalType": "address",
          "name": "author",
          "type": "address"
        }
      ],
      "name": "usercreated",
      "type": "event"
    },
    {
      "anonymous": false,
      "inputs": [
        {
          "indexed": false,
          "internalType": "string",
          "name": "phone_number",
          "type": "string"
        },
        {
          "indexed": false,
          "internalType": "address",
          "name": "author",
          "type": "address"
        }
      ],
      "name": "userdeleted",
      "type": "event"
    },
    {
      "anonymous": false,
      "inputs": [
        {
          "indexed": false,
          "internalType": "string",
          "name": "name",
          "type": "string"
        },
        {
          "indexed": false,
          "internalType": "string",
          "name": "phone_number",
          "type": "string"
        },
        {
          "indexed": false,
          "internalType": "string",
          "name": "address_",
          "type": "string"
        },
        {
          "indexed": false,
          "internalType": "string",
          "name": "gender",
          "type": "string"
        },
        {
          "indexed": false,
          "internalType": "uint256",
          "name": "age",
          "type": "uint256"
        },
        {
          "indexed": false,
          "internalType": "address",
          "name": "author",
          "type": "address"
        }
      ],
      "name": "useredited",
      "type": "event"
    },
    {
      "constant": true,
      "inputs": [],
      "name": "counter",
      "outputs": [
        {
          "internalType": "uint256",
          "name": "",
          "type": "uint256"
        }
      ],
      "payable": false,
      "stateMutability": "view",
      "type": "function"
    },
    {
      "constant": true,
      "inputs": [],
      "name": "ordercounter",
      "outputs": [
        {
          "internalType": "uint256",
          "name": "",
          "type": "uint256"
        }
      ],
      "payable": false,
      "stateMutability": "view",
      "type": "function"
    },
    {
      "constant": true,
      "inputs": [
        {
          "internalType": "uint256",
          "name": "",
          "type": "uint256"
        }
      ],
      "name": "orders",
      "outputs": [
        {
          "internalType": "string",
          "name": "username",
          "type": "string"
        },
        {
          "internalType": "string",
          "name": "userphone",
          "type": "string"
        },
        {
          "internalType": "string",
          "name": "product_title",
          "type": "string"
        },
        {
          "internalType": "string",
          "name": "product_quantity",
          "type": "string"
        },
        {
          "internalType": "string",
          "name": "date",
          "type": "string"
        },
        {
          "internalType": "uint256",
          "name": "price",
          "type": "uint256"
        },
        {
          "internalType": "uint256",
          "name": "id",
          "type": "uint256"
        }
      ],
      "payable": false,
      "stateMutability": "view",
      "type": "function"
    },
    {
      "constant": true,
      "inputs": [
        {
          "internalType": "uint256",
          "name": "",
          "type": "uint256"
        }
      ],
      "name": "products",
      "outputs": [
        {
          "internalType": "uint256",
          "name": "id",
          "type": "uint256"
        },
        {
          "internalType": "string",
          "name": "title",
          "type": "string"
        },
        {
          "internalType": "uint256",
          "name": "price",
          "type": "uint256"
        },
        {
          "internalType": "string",
          "name": "desc",
          "type": "string"
        },
        {
          "internalType": "string",
          "name": "quantity",
          "type": "string"
        },
        {
          "internalType": "string",
          "name": "image",
          "type": "string"
        },
        {
          "internalType": "address",
          "name": "created_by",
          "type": "address"
        }
      ],
      "payable": false,
      "stateMutability": "view",
      "type": "function"
    },
    {
      "constant": true,
      "inputs": [],
      "name": "usercounter",
      "outputs": [
        {
          "internalType": "uint256",
          "name": "",
          "type": "uint256"
        }
      ],
      "payable": false,
      "stateMutability": "view",
      "type": "function"
    },
    {
      "constant": true,
      "inputs": [
        {
          "internalType": "string",
          "name": "",
          "type": "string"
        }
      ],
      "name": "users",
      "outputs": [
        {
          "internalType": "string",
          "name": "name",
          "type": "string"
        },
        {
          "internalType": "string",
          "name": "phone_number",
          "type": "string"
        },
        {
          "internalType": "string",
          "name": "address_",
          "type": "string"
        },
        {
          "internalType": "string",
          "name": "gender",
          "type": "string"
        },
        {
          "internalType": "uint256",
          "name": "age",
          "type": "uint256"
        }
      ],
      "payable": false,
      "stateMutability": "view",
      "type": "function"
    },
    {
      "constant": false,
      "inputs": [
        {
          "internalType": "string",
          "name": "title",
          "type": "string"
        },
        {
          "internalType": "uint256",
          "name": "price",
          "type": "uint256"
        },
        {
          "internalType": "string",
          "name": "desc",
          "type": "string"
        },
        {
          "internalType": "string",
          "name": "quantity",
          "type": "string"
        },
        {
          "internalType": "string",
          "name": "image",
          "type": "string"
        }
      ],
      "name": "createproduct",
      "outputs": [],
      "payable": false,
      "stateMutability": "nonpayable",
      "type": "function"
    },
    {
      "constant": false,
      "inputs": [
        {
          "internalType": "uint256",
          "name": "id",
          "type": "uint256"
        },
        {
          "internalType": "string",
          "name": "title",
          "type": "string"
        },
        {
          "internalType": "uint256",
          "name": "price",
          "type": "uint256"
        },
        {
          "internalType": "string",
          "name": "desc",
          "type": "string"
        },
        {
          "internalType": "string",
          "name": "quantity",
          "type": "string"
        },
        {
          "internalType": "string",
          "name": "image",
          "type": "string"
        }
      ],
      "name": "editproduct",
      "outputs": [],
      "payable": false,
      "stateMutability": "nonpayable",
      "type": "function"
    },
    {
      "constant": false,
      "inputs": [
        {
          "internalType": "uint256",
          "name": "id",
          "type": "uint256"
        }
      ],
      "name": "deleteproduct",
      "outputs": [],
      "payable": false,
      "stateMutability": "nonpayable",
      "type": "function"
    },
    {
      "constant": true,
      "inputs": [],
      "name": "getallproudcts",
      "outputs": [
        {
          "components": [
            {
              "internalType": "uint256",
              "name": "id",
              "type": "uint256"
            },
            {
              "internalType": "string",
              "name": "title",
              "type": "string"
            },
            {
              "internalType": "uint256",
              "name": "price",
              "type": "uint256"
            },
            {
              "internalType": "string",
              "name": "desc",
              "type": "string"
            },
            {
              "internalType": "string",
              "name": "quantity",
              "type": "string"
            },
            {
              "internalType": "string",
              "name": "image",
              "type": "string"
            },
            {
              "internalType": "address",
              "name": "created_by",
              "type": "address"
            }
          ],
          "internalType": "struct Ecommerce.Product[]",
          "name": "",
          "type": "tuple[]"
        }
      ],
      "payable": false,
      "stateMutability": "view",
      "type": "function"
    },
    {
      "constant": false,
      "inputs": [
        {
          "internalType": "string",
          "name": "name",
          "type": "string"
        },
        {
          "internalType": "string",
          "name": "phone_number",
          "type": "string"
        },
        {
          "internalType": "string",
          "name": "address_",
          "type": "string"
        },
        {
          "internalType": "string",
          "name": "gender",
          "type": "string"
        },
        {
          "internalType": "uint256",
          "name": "age",
          "type": "uint256"
        }
      ],
      "name": "createuser",
      "outputs": [],
      "payable": false,
      "stateMutability": "nonpayable",
      "type": "function"
    },
    {
      "constant": false,
      "inputs": [
        {
          "internalType": "string",
          "name": "old_phone_number",
          "type": "string"
        },
        {
          "internalType": "string",
          "name": "new_name",
          "type": "string"
        },
        {
          "internalType": "string",
          "name": "new_address_",
          "type": "string"
        },
        {
          "internalType": "string",
          "name": "new_gender",
          "type": "string"
        },
        {
          "internalType": "uint256",
          "name": "new_age",
          "type": "uint256"
        }
      ],
      "name": "edituser",
      "outputs": [],
      "payable": false,
      "stateMutability": "nonpayable",
      "type": "function"
    },
    {
      "constant": false,
      "inputs": [
        {
          "internalType": "string",
          "name": "phone_number",
          "type": "string"
        }
      ],
      "name": "deleteuser",
      "outputs": [],
      "payable": false,
      "stateMutability": "nonpayable",
      "type": "function"
    },
    {
      "constant": false,
      "inputs": [
        {
          "internalType": "uint256",
          "name": "product_id",
          "type": "uint256"
        },
        {
          "internalType": "string",
          "name": "phone_number",
          "type": "string"
        }
      ],
      "name": "addtocart",
      "outputs": [],
      "payable": false,
      "stateMutability": "nonpayable",
      "type": "function"
    },
    {
      "constant": false,
      "inputs": [
        {
          "internalType": "uint256",
          "name": "product_id",
          "type": "uint256"
        },
        {
          "internalType": "string",
          "name": "phone_number",
          "type": "string"
        }
      ],
      "name": "removefromcart",
      "outputs": [],
      "payable": false,
      "stateMutability": "nonpayable",
      "type": "function"
    },
    {
      "constant": false,
      "inputs": [
        {
          "internalType": "string",
          "name": "phone_number",
          "type": "string"
        },
        {
          "internalType": "string",
          "name": "name",
          "type": "string"
        },
        {
          "internalType": "uint256",
          "name": "age",
          "type": "uint256"
        },
        {
          "internalType": "string",
          "name": "gender",
          "type": "string"
        }
      ],
      "name": "addfamilymember",
      "outputs": [],
      "payable": false,
      "stateMutability": "nonpayable",
      "type": "function"
    },
    {
      "constant": false,
      "inputs": [
        {
          "internalType": "string",
          "name": "phone_number",
          "type": "string"
        },
        {
          "internalType": "string",
          "name": "name",
          "type": "string"
        },
        {
          "internalType": "uint256",
          "name": "age",
          "type": "uint256"
        }
      ],
      "name": "deletefamilymember",
      "outputs": [],
      "payable": false,
      "stateMutability": "nonpayable",
      "type": "function"
    },
    {
      "constant": false,
      "inputs": [
        {
          "internalType": "string",
          "name": "phone_number",
          "type": "string"
        },
        {
          "internalType": "string",
          "name": "oldname",
          "type": "string"
        },
        {
          "internalType": "string",
          "name": "newname",
          "type": "string"
        },
        {
          "internalType": "uint256",
          "name": "oldage",
          "type": "uint256"
        },
        {
          "internalType": "uint256",
          "name": "newage",
          "type": "uint256"
        },
        {
          "internalType": "string",
          "name": "newgender",
          "type": "string"
        }
      ],
      "name": "editfamilymember",
      "outputs": [],
      "payable": false,
      "stateMutability": "nonpayable",
      "type": "function"
    },
    {
      "constant": true,
      "inputs": [
        {
          "internalType": "string",
          "name": "phone_number",
          "type": "string"
        }
      ],
      "name": "getfamilymembers",
      "outputs": [
        {
          "components": [
            {
              "internalType": "string",
              "name": "name",
              "type": "string"
            },
            {
              "internalType": "uint256",
              "name": "age",
              "type": "uint256"
            },
            {
              "internalType": "string",
              "name": "gender",
              "type": "string"
            }
          ],
          "internalType": "struct Ecommerce.Person[]",
          "name": "",
          "type": "tuple[]"
        }
      ],
      "payable": false,
      "stateMutability": "view",
      "type": "function"
    },
    {
      "constant": true,
      "inputs": [
        {
          "internalType": "string",
          "name": "phone_number",
          "type": "string"
        }
      ],
      "name": "getcartitems",
      "outputs": [
        {
          "internalType": "uint256[]",
          "name": "",
          "type": "uint256[]"
        }
      ],
      "payable": false,
      "stateMutability": "view",
      "type": "function"
    },
    {
      "constant": false,
      "inputs": [
        {
          "internalType": "string",
          "name": "username",
          "type": "string"
        },
        {
          "internalType": "string",
          "name": "userphone",
          "type": "string"
        },
        {
          "internalType": "string",
          "name": "product_title",
          "type": "string"
        },
        {
          "internalType": "string",
          "name": "product_quantity",
          "type": "string"
        },
        {
          "internalType": "string",
          "name": "date",
          "type": "string"
        },
        {
          "internalType": "uint256",
          "name": "price",
          "type": "uint256"
        }
      ],
      "name": "createorder",
      "outputs": [],
      "payable": false,
      "stateMutability": "nonpayable",
      "type": "function"
    },
    {
      "constant": false,
      "inputs": [
        {
          "internalType": "uint256",
          "name": "order_id",
          "type": "uint256"
        }
      ],
      "name": "deleteorder",
      "outputs": [],
      "payable": false,
      "stateMutability": "nonpayable",
      "type": "function"
    }
  ],
  "bytecode": "0x608060405234801561001057600080fd5b50600160038190555060016004819055506001600581905550613ce2806100386000396000f3fe608060405234801561001057600080fd5b50600436106101425760003560e01c80638b15563d116100b8578063c3ed5a801161007c578063c3ed5a801461035b578063d5fe0cae1461038b578063d762627b146103bb578063d867d351146103d7578063dc17daf1146103f3578063ee0cf1c41461040f57610142565b80638b15563d146102b3578063a162f7e9146102cf578063a78bd0cd146102ed578063a85c38ef14610309578063b0ea32811461033f57610142565b806361bc221a1161010a57806361bc221a146101d55780636245814e146101f3578063689e1c0314610211578063689e44dc146102455780636a491f4c146102615780637acc0b201461027d57610142565b8063303372d114610147578063365c0952146101635780634d8b77401461017f578063511248321461019d5780635e9e2238146101b9575b600080fd5b610161600480360361015c9190810190612b64565b61042b565b005b61017d60048036036101789190810190612d8e565b610705565b005b610187610888565b60405161019491906137ac565b60405180910390f35b6101b760048036036101b29190810190612d65565b61088e565b005b6101d360048036036101ce91908101906129a4565b610940565b005b6101dd610a0f565b6040516101ea91906137ac565b60405180910390f35b6101fb610a15565b60405161020891906137ac565b60405180910390f35b61022b60048036036102269190810190612821565b610a1b565b60405161023c95949392919061366d565b60405180910390f35b61025f600480360361025a9190810190612c8e565b610cc7565b005b61027b60048036036102769190810190612de2565b610e33565b005b61029760048036036102929190810190612d65565b610f7d565b6040516102aa979695949392919061382e565b60405180910390f35b6102cd60048036036102c89190810190612a7b565b61123f565b005b6102d7611477565b6040516102e49190613421565b60405180910390f35b61030760048036036103029190810190612d8e565b611920565b005b610323600480360361031e9190810190612d65565b6119e4565b60405161033697969594939291906135db565b60405180910390f35b61035960048036036103549190810190612862565b611d1e565b005b61037560048036036103709190810190612862565b611de3565b60405161038291906133ff565b60405180910390f35b6103a560048036036103a09190810190612862565b611fb7565b6040516103b29190613443565b60405180910390f35b6103d560048036036103d091908101906129a4565b612036565b005b6103f160048036036103ec91908101906128a3565b612124565b005b61040d60048036036104089190810190612d65565b612245565b005b61042960048036036104249190810190612be3565b61230d565b005b600060018460405161043d91906133b6565b9081526020016040518091039020905060007fffffffffffffffffffffffffffffffffffffffffffffffffffffffffffffffff905060008090505b8260010180549050811015610582578460405160200161049891906133b6565b604051602081830303815290604052805190602001208360010182815481106104bd57fe5b90600052602060002090600302016000016040516020016104de91906133cd565b6040516020818303038152906040528051906020012014801561056c57508360405160200161050d91906133e4565b6040516020818303038152906040528051906020012083600101828154811061053257fe5b90600052602060002090600302016001015460405160200161055491906133e4565b60405160208183030381529060405280519060200120145b15610575578091505b8080600101915050610478565b507fffffffffffffffffffffffffffffffffffffffffffffffffffffffffffffffff8114156105b2575050610700565b60008190505b6001836001018054905003811015610671578260010160018201815481106105dc57fe5b90600052602060002090600302018360010182815481106105f957fe5b90600052602060002090600302016000820181600001908054600181600116156101000203166002900461062e929190612470565b506001820154816001015560028201816002019080546001816001161561010002031660029004610660929190612470565b5090505080806001019150506105b8565b508160010180548061067f57fe5b6001900381819060005260206000209060030201600080820160006106a491906124f7565b60018201600090556002820160006106bc91906124f7565b505090557fade4031df0d108ef549ae4287c6c94fb76700940213e20ada5de1debd6557d42858585336040516106f59493929190613520565b60405180910390a150505b505050565b600060018260405161071791906133b6565b9081526020016040518091039020905060007fffffffffffffffffffffffffffffffffffffffffffffffffffffffffffffffff905060008090505b8260000180549050811015610793578483600001828154811061077157fe5b90600052602060002001541415610786578091505b8080600101915050610752565b507fffffffffffffffffffffffffffffffffffffffffffffffffffffffffffffffff8114156107c3575050610884565b60008190505b6001836000018054905003811015610822578260000160018201815481106107ed57fe5b906000526020600020015483600001828154811061080757fe5b906000526020600020018190555080806001019150506107c9565b508160000180548061083057fe5b600190038181906000526020600020016000905590557f16e17097b8893fddeb84e7e215afb514f021be992826fe50ade2450f5b87eb74848433604051610879939291906137f0565b60405180910390a150505b5050565b60055481565b60026000828152602001908152602001600020600080820160006108b291906124f7565b6001820160006108c291906124f7565b6002820160006108d291906124f7565b6003820160006108e291906124f7565b6004820160006108f291906124f7565b6005820160009055600682016000905550507f8ddb86b6fcb4ee7be875d6b7f7ef029ef9412781c31dba232e931caa7c2681f881336040516109359291906137c7565b60405180910390a150565b600060018660405161095291906133b6565b908152602001604051809103902090508481600201908051906020019061097a92919061253f565b508381600401908051906020019061099392919061253f565b50818160060181905550828160050190805190602001906109b592919061253f565b507f359756a6e14e6838e05718d7d1eee194305202c24bcfb05f46725770b5ed41a2816002018260030183600401846005018560060154336040516109ff969594939291906136dc565b60405180910390a1505050505050565b60035481565b60045481565b600181805160208101820180518482526020830160208501208183528095505050505050600091509050806002018054600181600116156101000203166002900480601f016020809104026020016040519081016040528092919081815260200182805460018160011615610100020316600290048015610add5780601f10610ab257610100808354040283529160200191610add565b820191906000526020600020905b815481529060010190602001808311610ac057829003601f168201915b505050505090806003018054600181600116156101000203166002900480601f016020809104026020016040519081016040528092919081815260200182805460018160011615610100020316600290048015610b7b5780601f10610b5057610100808354040283529160200191610b7b565b820191906000526020600020905b815481529060010190602001808311610b5e57829003601f168201915b505050505090806004018054600181600116156101000203166002900480601f016020809104026020016040519081016040528092919081815260200182805460018160011615610100020316600290048015610c195780601f10610bee57610100808354040283529160200191610c19565b820191906000526020600020905b815481529060010190602001808311610bfc57829003601f168201915b505050505090806005018054600181600116156101000203166002900480601f016020809104026020016040519081016040528092919081815260200182805460018160011615610100020316600290048015610cb75780601f10610c8c57610100808354040283529160200191610cb7565b820191906000526020600020905b815481529060010190602001808311610c9a57829003601f168201915b5050505050908060060154905085565b600060035490506000806000838152602001908152602001600020905081816000018190555086816001019080519060200190610d0592919061253f565b5085816002018190555084816003019080519060200190610d2792919061253f565b5082816005019080519060200190610d4092919061253f565b5083816004019080519060200190610d5992919061253f565b50338160060160006101000a81548173ffffffffffffffffffffffffffffffffffffffff021916908373ffffffffffffffffffffffffffffffffffffffff1602179055507f5971ac32b81208fbb63bf07dc34bca438eeaa0b1f425caa5c7bbbeb5fa006eca81600001548260010183600201548460030185600501866004018760060160009054906101000a900473ffffffffffffffffffffffffffffffffffffffff16604051610e10979695949392919061395a565b60405180910390a160036000815480929190600101919050555050505050505050565b6000806000888152602001908152602001600020905085816001019080519060200190610e6192919061253f565b5084816002018190555083816003019080519060200190610e8392919061253f565b5081816005019080519060200190610e9c92919061253f565b5082816004019080519060200190610eb592919061253f565b50338160060160006101000a81548173ffffffffffffffffffffffffffffffffffffffff021916908373ffffffffffffffffffffffffffffffffffffffff1602179055507ff0bd984ec47172879785e4fbb4c1164f314ed45e832543c56184393a9ac2bccd81600001548260010183600201548460030185600501866004018760060160009054906101000a900473ffffffffffffffffffffffffffffffffffffffff16604051610f6c979695949392919061395a565b60405180910390a150505050505050565b6000602052806000526040600020600091509050806000015490806001018054600181600116156101000203166002900480601f01602080910402602001604051908101604052809291908181526020018280546001816001161561010002031660029004801561102f5780601f106110045761010080835404028352916020019161102f565b820191906000526020600020905b81548152906001019060200180831161101257829003601f168201915b505050505090806002015490806003018054600181600116156101000203166002900480601f0160208091040260200160405190810160405280929190818152602001828054600181600116156101000203166002900480156110d35780601f106110a8576101008083540402835291602001916110d3565b820191906000526020600020905b8154815290600101906020018083116110b657829003601f168201915b505050505090806004018054600181600116156101000203166002900480601f0160208091040260200160405190810160405280929190818152602001828054600181600116156101000203166002900480156111715780601f1061114657610100808354040283529160200191611171565b820191906000526020600020905b81548152906001019060200180831161115457829003601f168201915b505050505090806005018054600181600116156101000203166002900480601f01602080910402602001604051908101604052809291908181526020018280546001816001161561010002031660029004801561120f5780601f106111e45761010080835404028352916020019161120f565b820191906000526020600020905b8154815290600101906020018083116111f257829003601f168201915b5050505050908060060160009054906101000a900473ffffffffffffffffffffffffffffffffffffffff16905087565b600060018760405161125191906133b6565b9081526020016040518091039020905060007fffffffffffffffffffffffffffffffffffffffffffffffffffffffffffffffff905060008090505b826001018054905081101561139657876040516020016112ac91906133b6565b604051602081830303815290604052805190602001208360010182815481106112d157fe5b90600052602060002090600302016000016040516020016112f291906133cd565b6040516020818303038152906040528051906020012014801561138057508560405160200161132191906133e4565b6040516020818303038152906040528051906020012083600101828154811061134657fe5b90600052602060002090600302016001015460405160200161136891906133e4565b60405160208183030381529060405280519060200120145b15611389578091505b808060010191505061128c565b507fffffffffffffffffffffffffffffffffffffffffffffffffffffffffffffffff8114156113c657505061146f565b60008260010182815481106113d757fe5b906000526020600020906003020190508481600101819055508381600201908051906020019061140892919061253f565b508681600001908051906020019061142192919061253f565b507fab450c892cd4eca3bf86e6003ddd25edc191a10d5dafe5d9cb566427973eaec5898260000183600101548460020133604051611463959493929190613573565b60405180910390a15050505b505050505050565b6060806003546040519080825280602002602001820160405280156114b657816020015b6114a36125bf565b81526020019060019003908161149b5790505b50905060008090505b6003548110156119185760606000808381526020019081526020016000206001018054600181600116156101000203166002900480601f0160208091040260200160405190810160405280929190818152602001828054600181600116156101000203166002900480156115745780601f1061154957610100808354040283529160200191611574565b820191906000526020600020905b81548152906001019060200180831161155757829003601f168201915b505050505090506060604051806020016040528060008152509050806040516020016115a091906133b6565b60405160208183030381529060405280519060200120826040516020016115c791906133b6565b6040516020818303038152906040528051906020012014611909576000808481526020019081526020016000206040518060e001604052908160008201548152602001600182018054600181600116156101000203166002900480601f0160208091040260200160405190810160405280929190818152602001828054600181600116156101000203166002900480156116a25780601f10611677576101008083540402835291602001916116a2565b820191906000526020600020905b81548152906001019060200180831161168557829003601f168201915b5050505050815260200160028201548152602001600382018054600181600116156101000203166002900480601f01602080910402602001604051908101604052809291908181526020018280546001816001161561010002031660029004801561174e5780601f106117235761010080835404028352916020019161174e565b820191906000526020600020905b81548152906001019060200180831161173157829003601f168201915b50505050508152602001600482018054600181600116156101000203166002900480601f0160208091040260200160405190810160405280929190818152602001828054600181600116156101000203166002900480156117f05780601f106117c5576101008083540402835291602001916117f0565b820191906000526020600020905b8154815290600101906020018083116117d357829003601f168201915b50505050508152602001600582018054600181600116156101000203166002900480601f0160208091040260200160405190810160405280929190818152602001828054600181600116156101000203166002900480156118925780601f1061186757610100808354040283529160200191611892565b820191906000526020600020905b81548152906001019060200180831161187557829003601f168201915b505050505081526020016006820160009054906101000a900473ffffffffffffffffffffffffffffffffffffffff1673ffffffffffffffffffffffffffffffffffffffff1673ffffffffffffffffffffffffffffffffffffffff16815250508484815181106118fd57fe5b60200260200101819052505b505080806001019150506114bf565b508091505090565b600060018260405161193291906133b6565b908152602001604051809103902090508060000183908060018154018082558091505090600182039060005260206000200160009091929091909150555060008160000180549050905060006001820390507f71e44deb82e58782faf9c415d841a94b15157a6cb840a3756595a919b561a0f2818460000183815481106119b557fe5b906000526020600020015485600301336040516119d594939291906139e5565b60405180910390a15050505050565b6002602052806000526040600020600091509050806000018054600181600116156101000203166002900480601f016020809104026020016040519081016040528092919081815260200182805460018160011615610100020316600290048015611a905780601f10611a6557610100808354040283529160200191611a90565b820191906000526020600020905b815481529060010190602001808311611a7357829003601f168201915b505050505090806001018054600181600116156101000203166002900480601f016020809104026020016040519081016040528092919081815260200182805460018160011615610100020316600290048015611b2e5780601f10611b0357610100808354040283529160200191611b2e565b820191906000526020600020905b815481529060010190602001808311611b1157829003601f168201915b505050505090806002018054600181600116156101000203166002900480601f016020809104026020016040519081016040528092919081815260200182805460018160011615610100020316600290048015611bcc5780601f10611ba157610100808354040283529160200191611bcc565b820191906000526020600020905b815481529060010190602001808311611baf57829003601f168201915b505050505090806003018054600181600116156101000203166002900480601f016020809104026020016040519081016040528092919081815260200182805460018160011615610100020316600290048015611c6a5780601f10611c3f57610100808354040283529160200191611c6a565b820191906000526020600020905b815481529060010190602001808311611c4d57829003601f168201915b505050505090806004018054600181600116156101000203166002900480601f016020809104026020016040519081016040528092919081815260200182805460018160011615610100020316600290048015611d085780601f10611cdd57610100808354040283529160200191611d08565b820191906000526020600020905b815481529060010190602001808311611ceb57829003601f168201915b5050505050908060050154908060060154905087565b600181604051611d2e91906133b6565b908152602001604051809103902060008082016000611d4d9190612612565b600182016000611d5d9190612633565b600282016000611d6d91906124f7565b600382016000611d7d91906124f7565b600482016000611d8d91906124f7565b600582016000611d9d91906124f7565b600682016000905550507f91b82fab30d806d0393aeb51ef4c2cfc914b2eb6789f5886673b0e11dacc0ba38133604051611dd8929190613465565b60405180910390a150565b60606000600183604051611df791906133b6565b9081526020016040518091039020905080600101805480602002602001604051908101604052809291908181526020016000905b82821015611fab5783829060005260206000209060030201604051806060016040529081600082018054600181600116156101000203166002900480601f016020809104026020016040519081016040528092919081815260200182805460018160011615610100020316600290048015611ee75780601f10611ebc57610100808354040283529160200191611ee7565b820191906000526020600020905b815481529060010190602001808311611eca57829003601f168201915b5050505050815260200160018201548152602001600282018054600181600116156101000203166002900480601f016020809104026020016040519081016040528092919081815260200182805460018160011615610100020316600290048015611f935780601f10611f6857610100808354040283529160200191611f93565b820191906000526020600020905b815481529060010190602001808311611f7657829003601f168201915b50505050508152505081526020019060010190611e2b565b50505050915050919050565b60606000600183604051611fcb91906133b6565b908152602001604051809103902090508060000180548060200260200160405190810160405280929190818152602001828054801561202957602002820191906000526020600020905b815481526020019060010190808311612015575b5050505050915050919050565b600060018560405161204891906133b6565b908152602001604051809103902090508581600201908051906020019061207092919061253f565b508481600301908051906020019061208992919061253f565b50838160040190805190602001906120a292919061253f565b50818160060181905550828160050190805190602001906120c492919061253f565b507f8c12296ffdf053eed0a4cd59ff2834d974ea059a3055156c12e92fe9b3b666158686868686600454336040516121029796959493929190613495565b60405180910390a1600460008154809291906001019190505550505050505050565b6000600260006005548152602001908152602001600020905060055481600601819055508681600001908051906020019061216092919061253f565b508581600101908051906020019061217992919061253f565b508481600201908051906020019061219292919061253f565b50838160030190805190602001906121ab92919061253f565b50828160040190805190602001906121c492919061253f565b508181600501819055507f304bee479bd884289934a9db2839261988e7e51ab0fa3b9129781b3ecfe83dd4816006015482600001836001018460020185600301866004018760050154336040516122229897969594939291906138b9565b60405180910390a160056000815480929190600101919050555050505050505050565b60008082815260200190815260200160002060008082016000905560018201600061227091906124f7565b600282016000905560038201600061228891906124f7565b60048201600061229891906124f7565b6005820160006122a891906124f7565b6006820160006101000a81549073ffffffffffffffffffffffffffffffffffffffff021916905550507f156ee650e49bca376e6b37ed731fd8d830227f6fd4b80de6b837338857b1813681336040516123029291906137c7565b60405180910390a150565b600060018560405161231f91906133b6565b90815260200160405180910390209050612337612657565b83816020018181525050828160400181905250848160000181905250816001018190806001815401808255809150509060018203906000526020600020906003020160009091929091909150600082015181600001908051906020019061239f929190612678565b506020820151816001015560408201518160020190805190602001906123c6929190612678565b505050507f09870693a5408f85aaefe88be6046e9ee3a54ddbaa3c1661515cfdb8c7a2d476826001016000815481106123fb57fe5b90600052602060002090600302016000018360010160008154811061241c57fe5b9060005260206000209060030201600101548460010160008154811061243e57fe5b9060005260206000209060030201600201336040516124609493929190613759565b60405180910390a1505050505050565b828054600181600116156101000203166002900490600052602060002090601f016020900481019282601f106124a957805485556124e6565b828001600101855582156124e657600052602060002091601f016020900482015b828111156124e55782548255916001019190600101906124ca565b5b5090506124f391906126f8565b5090565b50805460018160011615610100020316600290046000825580601f1061251d575061253c565b601f01602090049060005260206000209081019061253b91906126f8565b5b50565b828054600181600116156101000203166002900490600052602060002090601f016020900481019282601f1061258057805160ff19168380011785556125ae565b828001600101855582156125ae579182015b828111156125ad578251825591602001919060010190612592565b5b5090506125bb91906126f8565b5090565b6040518060e00160405280600081526020016060815260200160008152602001606081526020016060815260200160608152602001600073ffffffffffffffffffffffffffffffffffffffff1681525090565b508054600082559060005260206000209081019061263091906126f8565b50565b5080546000825560030290600052602060002090810190612654919061271d565b50565b60405180606001604052806060815260200160008152602001606081525090565b828054600181600116156101000203166002900490600052602060002090601f016020900481019282601f106126b957805160ff19168380011785556126e7565b828001600101855582156126e7579182015b828111156126e65782518255916020019190600101906126cb565b5b5090506126f491906126f8565b5090565b61271a91905b808211156127165760008160009055506001016126fe565b5090565b90565b61276191905b8082111561275d576000808201600061273c91906124f7565b600182016000905560028201600061275491906124f7565b50600301612723565b5090565b90565b600082601f83011261277557600080fd5b813561278861278382613a5e565b613a31565b915080825260208301602083018583830111156127a457600080fd5b6127af838284613c2b565b50505092915050565b600082601f8301126127c957600080fd5b81356127dc6127d782613a8a565b613a31565b915080825260208301602083018583830111156127f857600080fd5b612803838284613c2b565b50505092915050565b60008135905061281b81613c88565b92915050565b60006020828403121561283357600080fd5b600082013567ffffffffffffffff81111561284d57600080fd5b61285984828501612764565b91505092915050565b60006020828403121561287457600080fd5b600082013567ffffffffffffffff81111561288e57600080fd5b61289a848285016127b8565b91505092915050565b60008060008060008060c087890312156128bc57600080fd5b600087013567ffffffffffffffff8111156128d657600080fd5b6128e289828a016127b8565b965050602087013567ffffffffffffffff8111156128ff57600080fd5b61290b89828a016127b8565b955050604087013567ffffffffffffffff81111561292857600080fd5b61293489828a016127b8565b945050606087013567ffffffffffffffff81111561295157600080fd5b61295d89828a016127b8565b935050608087013567ffffffffffffffff81111561297a57600080fd5b61298689828a016127b8565b92505060a061299789828a0161280c565b9150509295509295509295565b600080600080600060a086880312156129bc57600080fd5b600086013567ffffffffffffffff8111156129d657600080fd5b6129e2888289016127b8565b955050602086013567ffffffffffffffff8111156129ff57600080fd5b612a0b888289016127b8565b945050604086013567ffffffffffffffff811115612a2857600080fd5b612a34888289016127b8565b935050606086013567ffffffffffffffff811115612a5157600080fd5b612a5d888289016127b8565b9250506080612a6e8882890161280c565b9150509295509295909350565b60008060008060008060c08789031215612a9457600080fd5b600087013567ffffffffffffffff811115612aae57600080fd5b612aba89828a016127b8565b965050602087013567ffffffffffffffff811115612ad757600080fd5b612ae389828a016127b8565b955050604087013567ffffffffffffffff811115612b0057600080fd5b612b0c89828a016127b8565b9450506060612b1d89828a0161280c565b9350506080612b2e89828a0161280c565b92505060a087013567ffffffffffffffff811115612b4b57600080fd5b612b5789828a016127b8565b9150509295509295509295565b600080600060608486031215612b7957600080fd5b600084013567ffffffffffffffff811115612b9357600080fd5b612b9f868287016127b8565b935050602084013567ffffffffffffffff811115612bbc57600080fd5b612bc8868287016127b8565b9250506040612bd98682870161280c565b9150509250925092565b60008060008060808587031215612bf957600080fd5b600085013567ffffffffffffffff811115612c1357600080fd5b612c1f878288016127b8565b945050602085013567ffffffffffffffff811115612c3c57600080fd5b612c48878288016127b8565b9350506040612c598782880161280c565b925050606085013567ffffffffffffffff811115612c7657600080fd5b612c82878288016127b8565b91505092959194509250565b600080600080600060a08688031215612ca657600080fd5b600086013567ffffffffffffffff811115612cc057600080fd5b612ccc888289016127b8565b9550506020612cdd8882890161280c565b945050604086013567ffffffffffffffff811115612cfa57600080fd5b612d06888289016127b8565b935050606086013567ffffffffffffffff811115612d2357600080fd5b612d2f888289016127b8565b925050608086013567ffffffffffffffff811115612d4c57600080fd5b612d58888289016127b8565b9150509295509295909350565b600060208284031215612d7757600080fd5b6000612d858482850161280c565b91505092915050565b60008060408385031215612da157600080fd5b6000612daf8582860161280c565b925050602083013567ffffffffffffffff811115612dcc57600080fd5b612dd8858286016127b8565b9150509250929050565b60008060008060008060c08789031215612dfb57600080fd5b6000612e0989828a0161280c565b965050602087013567ffffffffffffffff811115612e2657600080fd5b612e3289828a016127b8565b9550506040612e4389828a0161280c565b945050606087013567ffffffffffffffff811115612e6057600080fd5b612e6c89828a016127b8565b935050608087013567ffffffffffffffff811115612e8957600080fd5b612e9589828a016127b8565b92505060a087013567ffffffffffffffff811115612eb257600080fd5b612ebe89828a016127b8565b9150509295509295509295565b6000612ed78383613279565b905092915050565b6000612eeb83836132d0565b905092915050565b6000612eff8383613381565b60208301905092915050565b612f1481613bf5565b82525050565b612f2381613bb9565b82525050565b612f3281613bb9565b82525050565b6000612f4382613afb565b612f4d8185613b59565b935083602082028501612f5f85613ab6565b8060005b85811015612f9b5784840389528151612f7c8582612ecb565b9450612f8783613b32565b925060208a01995050600181019050612f63565b50829750879550505050505092915050565b6000612fb882613b06565b612fc28185613b6a565b935083602082028501612fd485613ac6565b8060005b858110156130105784840389528151612ff18582612edf565b9450612ffc83613b3f565b925060208a01995050600181019050612fd8565b50829750879550505050505092915050565b600061302d82613b11565b6130378185613b7b565b935061304283613ad6565b8060005b8381101561307357815161305a8882612ef3565b975061306583613b4c565b925050600181019050613046565b5085935050505092915050565b600061308b82613b27565b6130958185613b9d565b93506130a5818560208601613c3a565b6130ae81613c77565b840191505092915050565b60006130c482613b27565b6130ce8185613bae565b93506130de818560208601613c3a565b80840191505092915050565b60006130f582613b1c565b6130ff8185613b8c565b935061310f818560208601613c3a565b61311881613c77565b840191505092915050565b600061312e82613b1c565b6131388185613b9d565b9350613148818560208601613c3a565b61315181613c77565b840191505092915050565b600081546001811660008114613179576001811461319f576131e3565b607f600283041661318a8187613b9d565b955060ff1983168652602086019350506131e3565b600282046131ad8187613b9d565b95506131b885613ae6565b60005b828110156131da578154818901526001820191506020810190506131bb565b80880195505050505b505092915050565b600081546001811660008114613208576001811461322d57613271565b607f60028304166132198187613bae565b955060ff1983168652808601935050613271565b6002820461323b8187613bae565b955061324685613ae6565b60005b8281101561326857815481890152600182019150602081019050613249565b82880195505050505b505092915050565b6000606083016000830151848203600086015261329682826130ea565b91505060208301516132ab6020860182613381565b50604083015184820360408601526132c382826130ea565b9150508091505092915050565b600060e0830160008301516132e86000860182613381565b506020830151848203602086015261330082826130ea565b91505060408301516133156040860182613381565b506060830151848203606086015261332d82826130ea565b9150506080830151848203608086015261334782826130ea565b91505060a083015184820360a086015261336182826130ea565b91505060c083015161337660c0860182612f1a565b508091505092915050565b61338a81613beb565b82525050565b61339981613beb565b82525050565b6133b06133ab82613beb565b613c6d565b82525050565b60006133c282846130b9565b915081905092915050565b60006133d982846131eb565b915081905092915050565b60006133f0828461339f565b60208201915081905092915050565b600060208201905081810360008301526134198184612f38565b905092915050565b6000602082019050818103600083015261343b8184612fad565b905092915050565b6000602082019050818103600083015261345d8184613022565b905092915050565b6000604082019050818103600083015261347f8185613080565b905061348e6020830184612f0b565b9392505050565b600060e08201905081810360008301526134af818a613080565b905081810360208301526134c38189613080565b905081810360408301526134d78188613080565b905081810360608301526134eb8187613080565b90506134fa6080830186613390565b61350760a0830185613390565b61351460c0830184612f0b565b98975050505050505050565b6000608082019050818103600083015261353a8187613080565b9050818103602083015261354e8186613080565b905061355d6040830185613390565b61356a6060830184612f0b565b95945050505050565b600060a082019050818103600083015261358d8188613080565b905081810360208301526135a1818761315c565b90506135b06040830186613390565b81810360608301526135c2818561315c565b90506135d16080830184612f0b565b9695505050505050565b600060e08201905081810360008301526135f5818a613123565b905081810360208301526136098189613123565b9050818103604083015261361d8188613123565b905081810360608301526136318187613123565b905081810360808301526136458186613123565b905061365460a0830185613390565b61366160c0830184613390565b98975050505050505050565b600060a08201905081810360008301526136878188613123565b9050818103602083015261369b8187613123565b905081810360408301526136af8186613123565b905081810360608301526136c38185613123565b90506136d26080830184613390565b9695505050505050565b600060c08201905081810360008301526136f6818961315c565b9050818103602083015261370a818861315c565b9050818103604083015261371e818761315c565b90508181036060830152613732818661315c565b90506137416080830185613390565b61374e60a0830184612f0b565b979650505050505050565b60006080820190508181036000830152613773818761315c565b90506137826020830186613390565b8181036040830152613794818561315c565b90506137a36060830184612f0b565b95945050505050565b60006020820190506137c16000830184613390565b92915050565b60006040820190506137dc6000830185613390565b6137e96020830184612f0b565b9392505050565b60006060820190506138056000830186613390565b81810360208301526138178185613080565b90506138266040830184612f0b565b949350505050565b600060e082019050613843600083018a613390565b81810360208301526138558189613123565b90506138646040830188613390565b81810360608301526138768187613123565b9050818103608083015261388a8186613123565b905081810360a083015261389e8185613123565b90506138ad60c0830184612f29565b98975050505050505050565b6000610100820190506138cf600083018b613390565b81810360208301526138e1818a61315c565b905081810360408301526138f5818961315c565b90508181036060830152613909818861315c565b9050818103608083015261391d818761315c565b905081810360a0830152613931818661315c565b905061394060c0830185613390565b61394d60e0830184612f0b565b9998505050505050505050565b600060e08201905061396f600083018a613390565b8181036020830152613981818961315c565b90506139906040830188613390565b81810360608301526139a2818761315c565b905081810360808301526139b6818661315c565b905081810360a08301526139ca818561315c565b90506139d960c0830184612f29565b98975050505050505050565b60006080820190506139fa6000830187613390565b613a076020830186613390565b8181036040830152613a19818561315c565b9050613a286060830184612f0b565b95945050505050565b6000604051905081810181811067ffffffffffffffff82111715613a5457600080fd5b8060405250919050565b600067ffffffffffffffff821115613a7557600080fd5b601f19601f8301169050602081019050919050565b600067ffffffffffffffff821115613aa157600080fd5b601f19601f8301169050602081019050919050565b6000819050602082019050919050565b6000819050602082019050919050565b6000819050602082019050919050565b60008190508160005260206000209050919050565b600081519050919050565b600081519050919050565b600081519050919050565b600081519050919050565b600081519050919050565b6000602082019050919050565b6000602082019050919050565b6000602082019050919050565b600082825260208201905092915050565b600082825260208201905092915050565b600082825260208201905092915050565b600082825260208201905092915050565b600082825260208201905092915050565b600081905092915050565b6000613bc482613bcb565b9050919050565b600073ffffffffffffffffffffffffffffffffffffffff82169050919050565b6000819050919050565b6000613c0082613c07565b9050919050565b6000613c1282613c19565b9050919050565b6000613c2482613bcb565b9050919050565b82818337600083830152505050565b60005b83811015613c58578082015181840152602081019050613c3d565b83811115613c67576000848401525b50505050565b6000819050919050565b6000601f19601f8301169050919050565b613c9181613beb565b8114613c9c57600080fd5b5056fea365627a7a72315820ca86c8625d5be0c089699dd1cd132d8e0a39985cdad5de11b48064b96373750f6c6578706572696d656e74616cf564736f6c63430005100040",
  "source": "////////////////////////// Remaining functionalities ///////////////////////\n// 1. mulitiple items orders\n// 2. get all orders of a particular user\n////////////////////////// added functionalities ///////////////////////\n// 1.create product\n// 2.edit product\n// 3.delete product\n// 4.create user\n// 5.edit user\n// 6.delete user\n// 7.add user family members\n// 8.edit user family members\n// 9.delete user family members\n// 10.add orders\n// 12.remove orders\n// 13.get all products\n// 14.get all users\n//SPDX-License-Identifier: MIT\npragma solidity ^0.5.16;\npragma experimental ABIEncoderV2;\n\ncontract Ecommerce {\n    mapping(uint256 => Product) public products;\n    mapping(string => User) public users;\n    mapping(uint256 => Order) public orders;\n    uint256 public counter;\n    uint256 public usercounter;\n    uint256 public ordercounter;\n\n    constructor() public {\n        counter = 1;\n        usercounter = 1;\n        ordercounter = 1;\n    }\n\n    struct Order {\n        string username;\n        string userphone;\n        string product_title;\n        string product_quantity;\n        string date;\n        uint256 price;\n        uint256 id;\n    }\n    struct Person {\n        string name;\n        uint256 age;\n        string gender;\n    }\n    struct Product {\n        uint256 id;\n        string title;\n        uint256 price;\n        string desc;\n        string quantity;\n        string image;\n        address created_by;\n    }\n    struct User {\n        uint256[] cartitems;\n        Person[] family_members;\n        string name;\n        string phone_number;\n        string address_;\n        string gender;\n        uint256 age;\n    }\n\n    /////////////////////////////////////////////////product related functions start/////////////////////\n    event productcreated(\n        uint256 id,\n        string title,\n        uint256 price,\n        string desc,\n        string image,\n        string quantity,\n        address author\n    );\n    event productedited(\n        uint256 id,\n        string title,\n        uint256 price,\n        string desc,\n        string image,\n        string quantity,\n        address author\n    );\n    event productdeleted(uint256 id, address author);\n\n    function createproduct(\n        string memory title,\n        uint256 price,\n        string memory desc,\n        string memory quantity,\n        string memory image\n    ) public {\n        uint256 id = counter;\n        Product storage product = products[id];\n        product.id = id;\n        product.title = title;\n        product.price = price;\n        product.desc = desc;\n        product.image = image;\n        product.quantity = quantity;\n        product.created_by = msg.sender;\n        emit productcreated(\n            product.id,\n            product.title,\n            product.price,\n            product.desc,\n            product.image,\n            product.quantity,\n            product.created_by\n        );\n        counter++;\n    }\n\n    function editproduct(\n        uint256 id,\n        string memory title,\n        uint256 price,\n        string memory desc,\n        string memory quantity,\n        string memory image\n    ) public {\n        Product storage product = products[id];\n        product.title = title;\n        product.price = price;\n        product.desc = desc;\n        product.image = image;\n        product.quantity = quantity;\n        product.created_by = msg.sender;\n        emit productedited(\n            product.id,\n            product.title,\n            product.price,\n            product.desc,\n            product.image,\n            product.quantity,\n            product.created_by\n        );\n    }\n\n    function deleteproduct(uint256 id) public {\n        delete products[id];\n        emit productdeleted(id, msg.sender);\n    }\n\n    function getallproudcts() public view returns (Product[] memory) {\n        Product[] memory prods = new Product[](counter);\n        for (uint i = 0; i < counter; i++) {\n            string memory title=products[i].title;\n            string memory empty='';\n            if (keccak256(abi.encodePacked(title)) != keccak256(abi.encodePacked(empty))) {\n                prods[i]=products[i];\n}\n        }\n        return prods;\n    }\n\n    /////////////////////////////////////////////////product related functions end/////////////////////\n\n    /////////////////////////////////////////////////user related functions start/////////////////////\n\n    event usercreated(\n        string name,\n        string phone_number,\n        string address_,\n        string gender,\n        uint256 age,\n        uint256 counter,\n        address author\n    );\n    event useredited(\n        string name,\n        string phone_number,\n        string address_,\n        string gender,\n        uint256 age,\n        address author\n    );\n    event userdeleted(string phone_number, address author);\n    event member_added(string name, uint256 age, string gender, address author);\n    event cartitemadded(\n        uint256 last_index,\n        uint256 product_id,\n        string phone_number,\n        address author\n    );\n    event removedfromcart(uint256 product_id,string phone_number,address author);\n    event familymemberdeleted(string phone_number,string name,uint256 age,address author);\n    event familymemberedited(string phone_number, string name,uint256 age,string gender,address author);\n    function createuser(\n        string memory name,\n        string memory phone_number,\n        string memory address_,\n        string memory gender,\n        uint256 age\n    ) public {\n        User storage user = users[phone_number];\n        user.name = name;\n        user.phone_number = phone_number;\n        user.address_ = address_;\n        user.age = age;\n        user.gender = gender;\n\n        emit usercreated(\n            name,\n            phone_number,\n            address_,\n            gender,\n            age,\n            usercounter,\n            msg.sender\n        );\n        usercounter++;\n    }\n\n    function edituser(\n        string memory old_phone_number,\n        string memory new_name,\n        string memory new_address_,\n        string memory new_gender,\n        uint256 new_age\n    ) public {\n        User storage user = users[old_phone_number];\n        user.name = new_name;\n        user.address_ = new_address_;\n        user.age = new_age;\n        user.gender = new_gender;\n\n        emit useredited(\n            user.name,\n            user.phone_number,\n            user.address_,\n            user.gender,\n            user.age,\n            msg.sender\n        );\n    }\n\n    function deleteuser(string memory phone_number) public {\n        delete users[phone_number];\n        emit userdeleted(phone_number, msg.sender);\n    }\n\n    function addtocart(uint256 product_id, string memory phone_number) public {\n        User storage user = users[phone_number];\n        user.cartitems.push(product_id);\n        uint256 cart_len = user.cartitems.length;\n        uint256 last_index = cart_len - 1;\n        emit cartitemadded(\n            last_index,\n            user.cartitems[last_index],\n            user.phone_number,\n            msg.sender\n        );\n    }\n    function removefromcart(uint256 product_id,string memory phone_number) public{\n        User storage user=users[phone_number];\n        int index=-1;\n        for (uint i = 0; i < user.cartitems.length; i++) {\n            if(user.cartitems[i]==product_id)\n                index=int(i);           \n        }\n        if(index==-1)\n            return ;\n        for (uint i = uint(index); i<user.cartitems.length-1; i++){\n            user.cartitems[i] = user.cartitems[i+1];\n        }\n        user.cartitems.pop();\n        emit removedfromcart(product_id,phone_number,msg.sender);\n    }\n\n    function addfamilymember(\n        string memory phone_number,\n        string memory name,\n        uint256 age,\n        string memory gender\n    ) public {\n        User storage user = users[phone_number];\n        Person memory person;\n        person.age = age;\n        person.gender = gender;\n        person.name = name;\n        user.family_members.push(person);\n        emit member_added(\n            user.family_members[0].name,\n            user.family_members[0].age,\n            user.family_members[0].gender,\n            msg.sender\n        );\n    }\n    function deletefamilymember(string memory phone_number,string memory name,uint256 age)\n    public{\n        User storage user = users[phone_number];\n        int index=-1;\n        for (uint i = 0; i < user.family_members.length; i++) {\n            if(keccak256(abi.encodePacked(user.family_members[i].name)) == keccak256(abi.encodePacked(name)) &&keccak256(abi.encodePacked(user.family_members[i].age)) == keccak256(abi.encodePacked(age)))\n                index=int(i);           \n        }\n        if(index==-1)\n            return ;\n        for (uint i = uint(index); i<user.family_members.length-1; i++){\n            user.family_members[i] = user.family_members[i+1];\n        }\n        user.family_members.pop();\n        emit familymemberdeleted(phone_number,name,age,msg.sender);\n    }\n\n\n    function editfamilymember(string memory phone_number,string memory oldname,string memory newname,uint256 oldage,uint256 newage,string memory newgender)\n    public{\n        User storage user = users[phone_number];\n        int index=-1;\n        for (uint i = 0; i < user.family_members.length; i++) {\n            if(keccak256(abi.encodePacked(user.family_members[i].name)) == keccak256(abi.encodePacked(oldname)) &&keccak256(abi.encodePacked(user.family_members[i].age)) == keccak256(abi.encodePacked(oldage)))\n                index=int(i);           \n        }\n        if(index==-1)\n            return ;\n        Person storage per=user.family_members[uint(index)];\n        per.age=newage;\n        per.gender=newgender;\n        per.name=newname;\n        emit familymemberedited(phone_number, per.name, per.age,per.gender, msg.sender);\n    }\n//     function getallusers() public view returns (User[] memory) {\n//         User[] memory users_ = new User[](usercounter);\n//         for (uint i = 0; i < usercounter; i++) {\n//             string memory name=users[i].name;\n//             string memory empty='';\n//             if (keccak256(abi.encodePacked(name)) != keccak256(abi.encodePacked(empty))) {\n//                 users_[i]=users[i];\n// }\n//         }\n//         return users_;\n//     }\n    function getfamilymembers(string memory phone_number)\n        public\n        view\n        returns (Person[] memory)\n    {\n        User storage user = users[phone_number];\n        return user.family_members;\n    }\n\n    function getcartitems(string memory phone_number) public\n        view\n        returns (uint256[] memory)\n    {\n        User storage user=users[phone_number];\n        return user.cartitems;\n    }\n\n    /////////////////////////////////////////////////user related functions end/////////////////////\n    event ordercreated(\n        uint256 id,\n        string username,\n        string userphone,\n        string product_title,\n        string product_quantity,\n        string date,\n        uint256 price,\n        address author\n    );\n    event orderdeleted(uint256 id,address author);\n\n    function createorder(\n        string memory username,\n        string memory userphone,\n        string memory product_title,\n        string memory product_quantity,\n        string memory date,\n        uint256 price\n    ) public {\n        Order storage order = orders[ordercounter];\n        order.id = ordercounter;\n        order.username = username;\n        order.userphone = userphone;\n        order.product_title = product_title;\n        order.product_quantity = product_quantity;\n        order.date = date;\n        order.price = price;\n        emit ordercreated(\n            order.id,\n            order.username,\n            order.userphone,\n            order.product_title,\n            order.product_quantity,\n            order.date,\n            order.price,\n            msg.sender\n        );\n        ordercounter++;\n    }\n\n    function deleteorder(uint256 order_id)\n    public{\n        delete orders[order_id];\n        emit orderdeleted(order_id, msg.sender);\n    }\n}\n",
  "sourcePath": "C:\\Users\\user\\Desktop\\blockchain\\zuluforumadmin-master\\src\\contracts\\Ecommerce.sol",
  "compiler": {
    "name": "solc",
    "version": "0.5.16+commit.9c3226ce.Emscripten.clang"
  },
  "schemaVersion": "3.4.11",
  "updatedAt": "2023-03-26T07:53:50.766Z",
  "networkType": "ethereum",
  "devdoc": {
    "methods": {}
  },
  "userdoc": {
    "methods": {}
  }
}